:020000040000FA
:06000000A4EF06F012005F
:020006001200E6
:0600080016EF02F01200E9
:0600180094EF02F012005B
:02001E000100DF
:0C002000640D00006000000020000000E3
:04002C00C00E94125C
:10003000AC8EAC9CAC8AAC98AC96AC94AC92AC90C8
:10004000AB9EAB9CAB9AAB88AB96AB94AB92AB90B0
:10005000B89EB89CB89AB898B896B892B890670EFF
:10006000AF6EAB8E1200D9CFE6FFE1CFD9FFFE0E07
:10007000DB50AD6E9EA8FED7E552E7CFD9FF120048
:10008000AB889EAAFED7AE5000D01200D9CFE6FFB3
:10009000E1CFD9FF020EE126DE6ADD6ADE6ADD6AA3
:1000A000DECF00F0DDCF01F0FD0EDBCF02F0FE0E63
:1000B000DBCF03F00050025C015003580AE3100E3E
:1000C000E66E84EC06F0E552DF2A010E01E3DB2A3E
:1000D000E7D7020EE15C02E2E16AE552E16EE55229
:1000E000E7CFD9FF1200D9CFE6FFE1CFD9FFE65223
:1000F000C790C69EC950DF6EFE0EDB50F76A690FCF
:10010000F66E0B0EF7220800F550C96EC7A0FED799
:10011000C950F76A690FF66E0B0EF7220800F5500A
:1001200000D0E552E552E7CFD9FF1200D9CFE6FF64
:10013000E1CFD9FF030EE12681B0FED78B94E66AAA
:10014000D2DFE552E76E020EE7CFDBFFE66ACBDFD8
:10015000E552E76E010EE7CFDBFFDF6A010EDB50F1
:10016000DF5C12E2E66ABFDFE552E66EFD0EDBCF32
:10017000E9FFDB2AFE0EDBCFEAFF01E3DB2AE552D3
:10018000E750EF6EDF2AEAD78B8481A0FED7020EFC
:10019000E66EE66A7BDFE552E552010EDB50006E4B
:1001A000030EE15C03E200D0E16AE552E16E00502B
:1001B000E552E7CFD9FF1200D9CFE6FFE1CFD9FF53
:1001C000020EE1268B9481B0FED7320EE66EE66A0F
:1001D0005DDFE552E552DE6ADD6ADECF00F0DDCF9D
:1001E00001F0FD0EDBCFE9FFFE0EDBCFEAFFEF28CB
:1001F000026E036A0250005C0350015815E2FD0EC6
:10020000DBCF00F0FE0EDBCF01F0DE500024E96E04
:10021000DD500120EA6EEF50E66E65DFE552DF2A21
:10022000010E01E3DB2AD9D78B8481A0FED7020E11
:10023000E66EE66A2BDFE552E552020EE15C02E271
:10024000E16AE552E16EE552E7CFD9FF1200D9CF5E
:10025000E6FFE1CFD9FF020EE126DE6ADD6AFD0E80
:10026000DBCF00F0FE0EDBCF01F0DE500024E96EA4
:10027000DD500120EA6EEF5005E0DF2A010E01E3B8
:10028000DB2AEDD7DF50006E020EE15C03E200D006
:10029000E16AE552E16E0050E552E7CFD9FF120066
:1002A000D9CFE6FFE1CFD9FF040EE126DF6A150EB4
:1002B000DF5C01E37AD0020EDB6ADF50210DF3CF61
:1002C000F6FFF4CFF7FFB40EF626080EF722F62A53
:1002D000000EF7220800F528F36E020EDBCFF4FFC4
:1002E000F350F45C29E2DF50210DF3CFF6FFF4CF99
:1002F000F7FFB40EF626080EF722F62A000EF722B4
:10030000F6CF00F0F7CF01F0020EDB500F01002412
:10031000F66E000E0120F76E0800F550E66E020E34
:10032000DB50EA6A600FE96E000EEA22E552E75000
:10033000EF6E020EDB2AC1D7600EE66E000EE66E8F
:100340003BDFE552E552320EE66EE66A9FDEE5528D
:10035000E552600EE66E000EE66EE8DEE552E5520E
:10036000E76E030EE7CFDBFF010EDB6A030EDB5007
:10037000F36E010EDBCFF4FFF350F45C14E2010ED8
:10038000DB50EA6A600FE96E000EEA22EF50E66E7B
:100390006ADEE5520A0EE66EE66A78DEE552E5525E
:1003A000010EDB2AE3D7DF2A82D70001050E606F3A
:1003B0000F0E616F626B636B080E646F656F600E8A
:1003C000E66E000EE66EF8DEE552E552600EE66E71
:1003D000000EE66EABDEE552E552E76E030EE7CFA8
:1003E000DBFFDBCFE6FF3FDEE552DF6A030EDB50CB
:1003F000DF5C12E2DF50EA6A600FE96E000EEA226B
:10040000EF50E66E30DEE5520A0EE66EE66A3EDE3C
:10041000E552E552DF2AEAD7040EE15C02E2E16A26
:10042000E552E16EE552E7CFD9FF1200DACFE4FFE3
:10043000E2CFDAFFE9CFE4FFEACFE4FFF6CFE4FF53
:10044000F7CFE4FFF5CFE4FFF3CFE4FFF4CFE4FF11
:10045000FACFE4FF00EE04F0020EE80403E3EECF6F
:10046000E4FFFBD700EE00F0040EE80403E3EECF58
:10047000E4FFFBD7E652D9CFE6FFE1CFD9FF020E6A
:10048000E1268970600EE66E000EE66E4FDEE552E4
:10049000E552DF6EDFCFE6FFE6DDE552010EDB6AF7
:1004A000DF50F36E010EDBCFF4FFF350F45C0EE28D
:1004B000010EDB50EA6A600FE96E000EEA22EF508F
:1004C000E66ED1DDE552010EDB2AEAD7F292020E8A
:1004D000E15C02E2E16AE552E16EE552E7CFD9FF65
:1004E000E55200EE03F0040EE80403E3E5CFEDFF70
:1004F000FBD700EE05F0020EE80403E3E5CFEDFFC5
:10050000FBD7E5CFFAFFE5CFF4FFE5CFF3FFE5CF6B
:10051000F5FFE5CFF7FFE5CFF6FFE5CFEAFFE5CF43
:10052000E9FFE5CFDAFF1100D8CFE4FFE0CFE4FF29
:10053000E46EDACFE4FFE2CFDAFFE652E552E5CF30
:10054000DAFFE550E5CFE0FFE5CFD8FF1000D9CFC7
:10055000E6FFE1CFD9FF060EE126DF6A75D9897083
:10056000600EE66E000EE66EE1DDE552E552E76EE6
:10057000010EE7CFDBFF030EDB6A010EDB50F36EEB
:10058000030EDBCFF4FFF350F45C14E2030EDB50F8
:10059000EA6A600FE96E000EEA22EF50E66E63DD54
:1005A000E552640EE66EE66A71DDE552E552030E31
:1005B000DB2AE3D70001010E606F0C0E616F600E45
:1005C000E66E000EE66EF8DDE552E552E80EE66EE8
:1005D000030EE66E5BDDE552E552600EE66E000E40
:1005E000E66EA4DDE552E552E76E010EE7CFDBFFD4
:1005F000030EDB6A010EDB50F36E030EDBCFF4FF5C
:10060000F350F45C14E2030EDB50EA6A600FE96E0B
:10061000000EEA22EF50E66E26DDE5520A0EE66E87
:10062000E66A34DDE552E552030EDB2AE3D738DE15
:10063000897081B074D0600EE66E000EE66E76DDD5
:10064000E552E552E76E010EE7CFDBFF030EDB6AF2
:10065000010EDB50F36E030EDBCFF4FFF350F45CBE
:1006600014E2030EDB50EA6A600FE96E000EEA2224
:10067000EF50E66EF8DCE5520A0EE66EE66A06DD3D
:10068000E552E552030EDB2AE3D7860E0001605DDA
:1006900046E1E80EE66E030EE66EF8DCE552E55242
:1006A0000001050E606F0F0E616F626B636B080EC9
:1006B000646F656F600EE66E000EE66E7DDDE552DE
:1006C000E552600EE66E000EE66E30DDE552E55254
:1006D000E76E010EE7CFDBFFDBCFE6FFC4DCE552C0
:1006E000030EDB6A010EDB50F36E030EDBCFF4FF6B
:1006F000F350F45C14E2030EDB50EA6A600FE96E1B
:10070000000EEA22EF50E66EAEDCE5520A0EE66E0F
:10071000E66ABCDCE552E552030EDB2AE3D79EAA6B
:1007200082D0AEDCE76E020EE7CFDBFFDB50630862
:100730003DE10001010E606F0C0E616F600EE66E10
:10074000000EE66E39DDE552E552640EE66EE66AAD
:100750009DDCE552E552600EE66E000EE66EE6DCCC
:10076000E552E552E76E010EE7CFDBFF030EDB6AD1
:10077000010EDB50F36E030EDBCFF4FFF350F45C9D
:1007800014E2030EDB50EA6A600FE96E000EEA2203
:10079000EF50E66E68DCE5520A0EE66EE66A76DC3D
:1007A000E552E552030EDB2AE3D73DD0020EDB50C3
:1007B000620813E10001050E606F100E616F1E0EDE
:1007C000626F636B020E646F656F600EE66E000E03
:1007D000E66EF2DCE552E55226D0020EDB507308DD
:1007E00012E10001050E606F0F0E616F626B636BAB
:1007F000080E646F656F600EE66E000EE66EDCDC60
:10080000E552E55210D00001030E606F150E616FC6
:10081000020E626FDBCF63F0600EE66E000EE66ED6
:10082000CBDCE552E552640EE66EE66A2FDCE5525B
:10083000E552FED6060EE15C02E2E16AE552E16EA7
:10084000E552E7CFD9FF1200946A926A010E936EC7
:10085000000E826E816E806ED36ADF0E9B6E7E6AA2
:100860007F6AD08EF28EF29CF298F16AF06A786A12
:10087000BD6ABA6AB66AC26A7B6A7A6A7C6A7D6A4B
:1008800016EC00F08B803E0EE66EE66A46EC00F059
:10089000E552E5528B84949A94969488C79EC78CAF
:1008A000C790C69EC69CC68AC698C690C682C69485
:0408B000C6961200D6
:0C08B400000706000002024207000000DE
:1008C0000000000000000000000000000000000028
:1008D0000000000000001F061000000000000000E3
:1008E0000200020101000D0700049000000000005A
:1008F000000000000000001E06101C0102000000A5
:1009000000000000000000000000000000002000C7
:1009100000002403110100001F062000040402024D
:100920000001280001001804040505000228030145
:10093000020300002A040414001F06201C04000304
:100940002A000150494332696373656D692E636FF4
:100950006D0000000000000404001F06203805059B
:100960000004280301020500012A06040302000511
:100970002A010100000404050500001F062054069A
:10098000280301020700042A0604090800072A04B4
:1009900001FFFFFFFF0000FFFF0404001F0620709F
:1009A00002020008280001011804040202000928BC
:1009B00000010A1804040505000A2803001F062088
:1009C0008C01020B00272A06040302000B2A2701D0
:1009D000427806040807000C2904011900001F06CC
:1009E00020A8000001000004041010000D280001E0
:1009F0009ECADC240EE5A9E093F3A3B50100001F15
:100A00000620C4406E04041313000E280301040FD3
:100A1000009ECADC240EE5A9E093F3A3B502000012
:100A20001F0620E0406E44101400000F0002020078
:100A300000000000000000000000000000000000B6
:100A4000001F0620FC0000000404131300102803FC
:100A5000011011009ECADC240EE5A9E093F3A3B5B2
:100A600003001F06211800406E140014000011003E
:100A70000302000000000000000000000000000071
:100A80000000001F0621340000000046140302008D
:100A900012290201000004041313001328030102A9
:100AA00014009E001F062150CADC240EE5A9E09325
:100AB000F3A3B50500406E06040706001400050206
:100AC000FFFFFFFF001F06216CFFFF04041313004C
:100AD000152803010016009ECADC240EE5A9E09348
:100AE000F3A3B504000018062188406E0400090035
:100AF00000160004020000000000000000000000DA
:100B0000000000000000001706400000020200087C
:100B100004000F0000000302000204001100120094
:100B20000000000000000000130650009ECADC24F4
:100B30000EE5A9E093F3A3B50000406E00000000AD
:100B40000000000000000000000606F000022EF980
:100B50000000000000000000000000000000000095
:100B6000000000000000000000008040C020A060E5
:100B7000E0109050D030B070F0088848C828A868BD
:100B8000E8189858D838B878F8048444C424A46481
:100B9000E4149454D434B474F40C8C4CCC2CAC6C5D
:100BA000EC1C9C5CDC3CBC7CFC028242C222A2624B
:100BB000E2129252D232B272F20A8A4ACA2AAA6A5D
:100BC000EA1A9A5ADA3ABA7AFA068646C626A66621
:100BD000E6169656D636B676F60E8E4ECE2EAE6EFD
:100BE000EE1E9E5EDE3EBE7EFE018141C121A16100
:100BF000E1119151D131B171F1098949C929A9692D
:100C0000E9199959D939B979F9058545C525A565F0
:100C1000E5159555D535B575F50D8D4DCD2DAD6DCC
:100C2000ED1D9D5DDD3DBD7DFD038343C323A363BA
:100C3000E3139353D333B373F30B8B4BCB2BAB6BCC
:100C4000EB1B9B5BDB3BBB7BFB078747C727A76790
:100C5000E7179757D737B777F70F8F4FCF2FAF6F6C
:090C6000EF1F9F5FDF3FBF7FFF24
:060C6A001E0EF66E000EE6
:100C7000F76E000EF86E00010900F550856F09004F
:100C8000F550866F03E1856701D03DD00900F5502E
:100C9000806F0900F550816F0900F550826F0900DF
:100CA0000900F550E96E0900F550EA6E09000900E7
:100CB0000900F550836F0900F550846F09000900A1
:100CC000F6CF87F0F7CF88F0F8CF89F080C0F6FF35
:100CD00081C0F7FF82C0F8FF0001835302E1845313
:100CE00007E00900F550EE6E8307F8E28407F9D7B4
:100CF00087C0F6FF88C0F7FF89C0F8FF00018507AD
:080D0000000E865BBFD7120054
:080D0800FF0EE350066E480ED9
:100D100001D04C0EE76EE72EFED7E76AE72EFED72E
:080D2000062EF7D700001200B7
:080D2800000EF36E00EE00F076
:100D3000030E01D81200EA6002D0EE6AFCD7F3502D
:080D4000E9601200EE6AFCD725
:080D480012EE00F022EE00F0B3
:100D5000F86A059C35EC06F003EC00F0A7EC02F015
:040D6000FBD71200AB
:0C0D640000000000000000000000000083
:100D70000000000000000000000000000000000073
:040D8000000000006F
:020000040030CA
:0100010006F8
:010002000BF2
:010003000EEE
:010005008971
:010006008574
:010008000FE8
:01000900C036
:01000A000FE6
:01000B00E014
:01000C000FE4
:01000D0040B2
:00000001FF
